:1000000001027400F5807406F58075F00385F0A098
:0E001000112E75F00585F0A0119A7403F5808D
:10001E0075F00685F0A0112E7405F580119A010673
:10002E007403F5B075F03F85F090118D7400F5B046
:10003E0075F06785F090118D75F07F85F090118DBC
:10004E0075F00785F090118D75F07D85F090118D0E
:10005E0075F06D85F090118D75F06685F090118DAF
:10006E0075F04F85F090118D75F05B85F090118DC8
:0F007E0075F00685F090118D75F03F85F090229A
:0F008D0079FF7AF07B06DBFEDAFAD9F62279FFEB
:0B009C007AFF7B10DBFEDAFAD9F622B7
:00000001FF
