:1000000001027400F58075900075B0007436F580BB
:1000100075F03685F0A011F075F03385F0A01184ED
:1000200075F03585F0A011F075900075B00074364C
:10003000F58075F03685F0A011F07433F5801184E9
:100040007435F58011F075900075B0007436F58048
:1000500075F03685F0A011F0741EF5801184742EB1
:0E006000F58011F075900075B0007436F580D3
:10006E0075F03685F0A011F0741EF5A01184742E73
:10007E00F5A011F001067403F5B075F03F85F09010
:0E008E0011E37400F5B075F06F85F09011E38A
:10009C0075F07F85F09011E375F00785F09011E312
:1000AC0075F07D85F09011E375F06D85F09011E39E
:1000BC0075F06685F09011E375F04F85F09011E3C3
:1000CC0075F05B85F09011E375F00685F09011E307
:0F00DC0075F03F85F0902279FF7AF07B06DBFE0E
:0F00EB00DAFAD9F62279FF7AFF7B10DBFEDAFA18
:0300FA00D9F62212
:00000001FF
